:020000040000FA
:06000000020B4A0201F6AA
:03002B000207EADF
:0300330002059D26
:030043000207C5EC
:0300530002013770
:03006B0002057516
:10008300020185010105030101FF0F10FEFF4D2948
:1000930000000000212800000000FF000000FF0016
:1000A3000141525A4900020304050055060000F4B9
:1000B30017000000000000D818000000000000D660
:1000C3001700000000000000000000000000000016
:1000D300000000000000000000FFFF01010400F722
:1000E3001200000064000000FFFF721303640000AD
:1000F3000064006400B801A0BB0D00A0BB0D0002AA
:1001030002000800000502070401051E02051E0285
:100113000A0A080803B80B02803E0102E8030A0535
:10012300000101FFFF140000000000010002002095
:10013300FD000206C0E074F2120417A2AFE433F527
:1001430008D2AFE5A7FEE5A1FFEF5E5410600612EB
:10015300229E75A1EFEF5E540860081222A475A1D8
:10016300F78012EFA2E092F0EEA2E082F0500612C6
:10017300235E75A1FEA808E508A2E092AF7F010205
:100183000476C0E074F2120417A2AFE433FED2AFD8
:100193009061A4E0F8759B00E591585408600875D8
:1001A30091F71222F88026E5915854106008759152
:1001B300EF1222FE8017E591A2E092F0E8A2E0821E
:1001C300F0500A9061A4E0C2E0F012245A9061A3B7
:1001D300E0F8E5E9585404600E12243075E9FB9009
:1001E3006193E0A2E640F2EEF8EEA2E092AF7F0167
:1001F300020476C0E074F2120417A2AFE433FED215
:10020300AF9061A5E0F8E5BF585404600675BFFBE5
:10021300122472EEF8EEA2E092AF7F01020476C3DD
:10022300E498F8E499F91202638026C3E49AFAE4A5
:100233009BFBE920E7E9120263E498F8E499F922C9
:10024300C3E498F8E499F9120263E498F8E499F99D
:10025300C3E49AFAE49BFB22EB20E7CFE920E7E033
:10026300B90010BB0008E88AF084F8AAF022E4FB86
:10027300C8FA22EB70227B10C833C8C933C9335084
:1002830007C39AC3DBF280069A50012ADBEAC8331C
:10029300F4C8C933F4C9FA2275F008E4C833C8C9ED
:1002A30033C933C99AC99B5004C92AC93BD5F0EC59
:1002B300FBC833F4C8E4C9FA22080808EAC0E0EB33
:1002C300C0E086F0E7A4FA180986F0E7A42AFA1832
:1002D3000986F0E7A42AFA180986F0E7A42AFA198E
:1002E30086F0E7A4FBE5F02AFA190886F0E7A42BC9
:1002F300FBE5F03AFA190886F0E7A42BFBE5F03AA0
:10030300FA18180986F0E7A4C5F02BFBE43AFA19AA
:1003130008E7C5F0C6A426F6E5F03BFBE43AFA1875
:1003230086F0E7A4F6E5F00826F6E43B08F6E43A9F
:1003330008F6D0E0FBD0E0FA22E4CFC0E0E4CEC080
:10034300E0E4CDC0E0E4CCC0E075F020E626F6089A
:10035300E633F608E633F608E633F6181818EC33F6
:10036300FCED33FDEE33FEEF33FFC3EC9709ED975E
:1003730009EE9709EF97191919400FFFEC97FC093C
:10038300ED97FD09EE97FE191906D5F0BFECF709B5
:10039300EDF709EEF709EFF7191919D0E0FCD0E0F2
:1003A300FDD0E0FED0E0FF222518C582C0E0E519AC
:1003B30034FFC583C0E0E518C3958224F810AF0865
:1003C3008583198582188008858319858218D2AFA1
:1003D300CEF0A3E520F0A37808E608F0A3DEFAEF59
:1003E300F0A3E58124FAF8E608F0A3E608F0A3E613
:1003F30008F0A30808E608F0A3E608F0A3158115A2
:1004030081D0E0FED0E0F8158115811581E8C0E0C8
:10041300EEC0E022C0D02518C582C0E0E51934FF44
:10042300C583C0E0E518C3958224F310AF08858324
:10043300198582188008858319858218D2AFC8F080
:10044300A3E9F0A3EAF0A3EBF0A37908E709F0A38B
:10045300D8FAECF0A3EDF0A3EEF0A3EFF0A3D0E015
:10046300F0A3D0E0F0A3D0E0F0A3E520F0A3E5F003
:10047300F0A322851983851882E0C0E0A3E0F9A3E5
:10048300E0FAA3E0FBA37808E0F608A3DFFAE0FCB8
:10049300A3E0FDA3E0FEA3E0FFA3E0C0E0A3E0C070
:1004A300E0A3E0F5D0A3E0F520A3E0A3F5F010AFBF
:1004B300088583198582188008858319858218D257
:1004C300AFD082D083D0E0F8D0E032120BDCB90099
:1004D3000302050DE490030178A7791B8002F0A3C2
:1004E300D8FCD9FA7AA77B1D90008678B27901806F
:1004F30015E493A3AD82AE838A828B83F0A3AA8291
:10050300AB838D828E83D8E9D9E775823D7583AA43
:1005130074061208AF75826675832774001208AFDC
:100523000975F0108E1A8F1B85821F85831E85180F
:1005330082851983E0CEA3E0CF851F82851E83EBDE
:10054300C9EAC8EDCBECCAC3E833C8E933C9EA3317
:10055300CAEB33CBC3EA9EF51DEB9FF51CB35004E6
:10056300AB1CAA1DEC33CCED33CDD5F0DAAE1AAF0C
:100573001B22C0E074F2120417A2AFE433FED2AF21
:10058300E589A2E15003122160758900C2C5EEF826
:10059300EEA2E092AF7F01020476C0E074F212048F
:1005A30017A2AFE433FED2AFE58BA2E050031221D2
:1005B30060758B00C2E8EEF8EEA2E092AF7F010215
:1005C3000476D083D082ECC0E0EDC0E0E493A3FCDA
:1005D300E493A3FDED4C600D12069DEC24FFFCEDAE
:1005E30034FFFD80EFE493A3FCE493A3FDED4C60A3
:1005F3000D120770EC24FFFCED34FFFD80EFD0E01B
:10060300FDD0E0FCE493A3C0E0E493C0E022D083F8
:10061300D082E9C0E0E493A3C386F0C5F095F0F976
:1006230008E493A386F0C5F095F0700BE493A3C39D
:10063300994005E9048002A3E475F002A42582F53C
:1006430082E5F03583F583D0E0F9E493A3C0E0E4D9
:1006530093C0E022851983851882E0A3FEE0A3F509
:10066300207808E0A3F608DFFAE0A3FFE0A3C0E0E8
:10067300E0A3C0E0E0A3C0E0E0A3C0E0E0A3C0E0EB
:1006830010AF0885821885831980088582188583B1
:1006930019D2AFD083D0820208B5C0E0C3E49396E9
:1006A300087401939618400FE49366700808740168
:1006B30093661870007019A3A3C3E493960874019A
:1006C300939618A3A3400DD0E0D0E0D0E00206013A
:1006D300A3A3A3A3A3A3D0E022D083D082C5F0E435
:1006E30093A3C5F0C395F0F5F0E493A3C395F0404D
:1006F30005E5F0048001E475F002A42582F582E5A6
:10070300F03583F583E493A3C0E0E493C0E022745F
:1007130004800474028000CCC0E0EDC0E0E518C39F
:100723009CCCAD1950011D10AF068C188D19800695
:100733008C188D19D2AF120831D0E0FDD0E0FC2225
:1007430074028000CCC0E0EDC0E0E518C39CCCADE2
:100753001950011D10AF068C188D1980068C188D49
:1007630019D2AF12080FD0E0FDD0E0FC22C0E0C0E8
:10077300F088F0E4936670080874019366187000BB
:10078300A8F0A3A3700BD0F0D0E0D0E0D0E0020635
:1007930001A3A3D0F0D0E022D083D082CCC0E0E488
:1007A30093A360061208521470FAE493A36006122E
:1007B30009971470FAD0E0FCE493A3C0E0E493C07B
:1007C300E022C0E074F2120417A2AFE433FED2AF0A
:1007D300C2C0E5D1A2E450031221F0EEF8EEA2E08C
:1007E30092AF7F01020476C0E0C0D0E8C0E0E9C068
:1007F300E0A2AFE433F8D2AFC2C7E8F9E8A2E092CF
:10080300AFD0E0F9D0E0F8D0D0D0E032CAC0E0E415
:1008130093A3C582CCC582C583CDC583F0A3C5820E
:10082300CCC582C583CDC583DAE5D0E0CA22CAC070
:10083300E0E0A3C582CCC582C583CDC583F0A3C543
:1008430082CCC582C583CDC583DAE6D0E0CA22C097
:10085300E0E493A3D39C5010E493A3C39C400AD039
:10086300E0D0E0D0E00207B8A3A3A3D0E022700950
:10087300080808226016181818C6C333C608C633FA
:10088300C608C633C608C633C6D5E0EA22C008C3C5
:10089300E096F50808A3E096420808A3E09642080C
:1008A30008A3E09645087001D3D00822C09FF59FA6
:1008B300E473D09F22D083D082C09FE493C0E074BE
:1008C3000193C0E0740293F59F227404800A7403B9
:1008D3008006740280027401C0E0F404120903D09C
:1008E300E0120B872200C0D0251810AF08F518506E
:1008F3000C05198008F51850020519D2AFD0D02283
:100903002518F58210AF08F518400C15198008F565
:100913001840021519D2AF85198322BB0102E722C1
:10092300C082C08389828A83BB0003E08002E49390
:10093300D083D082226016080808C6C313C618C61F
:1009430013C618C613C618C613C6D5E0EA2225185F
:10095300F8E43519F9222518FAE43519FB2225188C
:10096300FCE43519FD22C3E0C696F608A3E0C6965B
:10097300F608A3E0C696F608A3E0C696F622251865
:1009830010AF08F518400C15198008F5184002152A
:1009930019D2AF22C0E0E493A36C7009D0E0D0E099
:1009A300D0E00207B8A3A3D0E022E76670100809DD
:1009B300E766700A0809E76670040809E76622E03B
:1009C30066701008A3E066700A08A3E06670040866
:1009D300A3E06622C3E09608A3E09608A3E0960886
:1009E300A3E096A2D265D03322C3E096F008A3E039
:1009F30096F008A3E096F008A3E096F022C3E493F0
:100A03009608740193960874029396087403939658
:100A130022C3E697F60809E697F60809E697F6086B
:100A230009E697F622E026F608A3E036F608A3E0E7
:100A330036F608A3E036F622E627F60809E637F687
:100A43000809E637F60809E637F622E056F608A362
:100A5300E056F608A3E056F608A3E056F622E05661
:100A6300F008A3E056F008A3E056F008A3E056F020
:100A730022700422600D18C6C333C608C633C6D518
:100A8300E0F41822E493F608740193F608740293D1
:100A9300F608740393F622E026F008A3E036F00884
:100AA300A3E036F008A3E036F022E046F608A3E020
:100AB30046F608A3E046F608A3E046F622E066F60B
:100AC30008A3E066F608A3E066F608A3E066F6224C
:100AD300E657F60809E657F60809E657F60809E661
:100AE30057F622E647F60809E647F60809E647F609
:100AF3000809E647F622E4C396F608E496F608E406
:100B030096F608E496F622600D08C6A2E713C61807
:100B1300C613C6D5E0F322C6F4C608C6F4C608C693
:100B2300F4C608C6F4C622C3E7960809E79608097F
:100B3300E7960809E79622C3E09608A3E09608A380
:100B4300E09608A3E0962275D00075813F751801E1
:100B5300751903000204CEE6F008A3E6F008A3E645
:100B6300F008A3E6F022600C08C6C313C618C61328
:100B7300C6D5E0F422E0F608A3E0F608A3E0F60801
:100B8300A3E0F622CAC0E0E6F0A308DAFAD0E0FA5E
:100B930022E8F0A3E9F0A3EAF0A3EBF022E0F8A344
:100BA300E0F9A3E0FAA3E0FB22ECF0A3EDF0A3EE5F
:100BB300F0A3EFF022E0FCA3E0FDA3E0FEA3E0FF3F
:100BC30022EAF0A3EBF0A3ECF0A3EDF022E0FAA30A
:100BD300E0FBA3E0FCA3E0FD22E5C754F84401F5E4
:100BE300C77901222518F582E43519F58322C2AFAE
:100BF30075D69F020000221208B8114E001208B8E1
:100C03001C4E001208B84B4E001208B8734E001267
:100C130008B87E4E001208B8E34E001208B8ED4E35
:100C2300001208B8F84E001208B81C4F001208B89A
:100C3300404F001208B8AE4F001208B8F74F001229
:100C430008B81350001208B88850001208B8D450DE
:100C5300001208B81D51001208B8A251001208B8BA
:100C63004952001208B81A54001208B87F540012EF
:100C730008B8AD55001208B8D355001208B81B5771
:100C8300001208B8555A001208B8535C001208B88D
:100C93001E5E001208B8B75E001208B8B5600012F5
:100CA30008B86A61001208B8A361001208B8136299
:100CB300001208B81D62001208B84A64001208B88E
:100CC3008965001208B8E065001208B88B66001247
:100CD30008B83B68001208B88869001208B8A86908
:100CE300001208B8FD69001208B8FE6A001208B8BD
:100CF300266B001208B8856B001208B87D6C0012D1
:100D030008B8F46C001208B8076E001208B8756EC4
:100D1300001208B8746F001208B8CA71001208B83C
:100D2300F371001208B85973001208B8DB7400128B
:100D330008B83275001208B8E575001208B8827653
:100D4300001208B8E576001208B8A377001208B8B5
:100D53003578001208B89478001208B8D6780012D3
:100D630008B80E79001208B8647A001208B8008037
:100D7300021208B83280021208B86B80021208B857
:100D8300B481021208B8F881021208B8CA820212AA
:100D930008B82283021208B83884021208B884847F
:100DA300021208B8EA86021208B88989021208B842
:100DB300CC8A021208B8668B021208B8728B021230
:100DC30008B8B28B021208B8F18C021208B8EA8D87
:100DD300021208B8148E021208B8678E021208B8FD
:100DE300C08E021208B8218F021208B83C91021279
:100DF30008B8CD92021208B8B993021208B8FB944E
:100E0300021208B83797021208B8039A021208B8F8
:100E1300129A021208B8A69A021208B85A9B021232
:100E230008B89D9B021208B8FC9B021208B8189CD4
:100E3300021208B80B9D021208B8839F021208B869
:100E4300D0A0021208B8A3A1021208B825A2021268
:100E530008B81CA6021208B84BA6021208B8A6A628
:100E6300021208B8D9A6021208B849A7021208B894
:100E73007CA7021208B8DDA7021208B82DA8021237
:100E830008B806A9021208B8C0A9021208B89AAA9B
:100E9300021208B820AD021208B87EAE021208B8DA
:100EA300D1AF021208B8E5B0021208B8E8B00212D6
:100EB30008B817B1021208B8ECB2021208B8ABB303
:100EC300021208B8DAB3021208B8F7B4021208B86B
:100ED300CBB5021208B88DB7021208B8FDB70212DB
:100EE30008B82FB8021208B84FB8021208B8BBB836
:100EF300021208B8B5B9021208B8D9B9021208B873
:100F03004CBA021208B89FBC021208B8FEBC021207
:100F130008B852BD021208B88DBF021208B879C0D2
:100F2300021208B837C1021208B84BC1021208B83E
:100F33005FC1021208B873C1021208B887C1021256
:100F430008B8B4C1021208B8E4C1021208B8BEC39B
:100F5300021208B885C4021208B82EC5021208B8D6
:100F63008BC5021208B8EEC5021208B83CC60212BD
:100F730008B857C6021208B821C7021208B8C6C774
:100F8300021208B843C9021208B8CEC9021208B83F
:100F930009CA021208B87BCA021208B8D0CB0212DF
:100FA30008B87ECC021208B8B2CC021208B8CACC78
:100FB300021208B86DCD021208B8EBCF021208B8BE
:100FC3007FD1021208B89DD1021208B8BBD1021218
:100FD30008B887D2021208B8E0D5021208B889818E
:100FE300011208B8CB81011208B8D386011208B8E0
:100FF3001F87011208B86587011208B89788011284
:1010030008B8FC88011208B84089011208B8C68ADA
:10101300011208B8D58E011208B83290011208B82F
:10102300C29B011208B8459C011208B82F9F0112F8
:1010330008B894A0011208B8F7A0011208B819A2C1
:10104300011208B885A3011208B86AA4011208B8EE
:10105300DFA6011208B86DA8011208B8FEA8011294
:1010630008B81DAA011208B8AAAA011208B8B4AA9E
:10107300011208B8DCAA011208B87CAB011208B847
:1010830069AC011208B831AD011208B8C3AD011241
:1010930008B8E0AD011208B809AE011208B836AEBF
:1010A300011208B891B0011208B86CB1011208B866
:1010B300B0B1011208B832B2011208B8D3B20112AA
:1010C30008B805B3011208B859B3011208B88CB3B4
:1010D300011208B8EAB3011208B839B4011208B80A
:1010E3003EB4011208B89AB4011208B8ECB4011264
:1010F30008B8D8B5011208B83DB6011208B89BB6B6
:10110300011208B81AB7011208B886BA011208B852
:101113006BBB011208B814BD011208B862C00112FA
:1011230008B804C1011208B859C3011208B814C49D
:10113300011208B85CC4011208B813C6011208B83A
:1011430030C6011208B839C6011208B842C60112E6
:1011530008B84DC6011208B86CC6011208B890C889
:10116300011208B8EDC8011208B8F7C8011208B88F
:1011730014C9011208B825CA011208B86ECA0112AF
:1011830008B81CCB011208B82CCC011208B8F0CC5B
:10119300011208B82CCE011208B83DCF011208B8CD
:1011A30048D0011208B860D0011208B897D00112D4
:1011B30008B8A1D0011208B8ACD0011208B8CAD03F
:1011C300011208B812D1011208B870D1011208B87F
:1011D3009AD1011208B8ACD1011208B855D2011244
:1011E30008B88ED2011208B8BAD3011208B817D4BE
:1011F300011208B808D5011208B83ED5011208B883
:10120300AFD5011208B82BD6011208B8CFD70112F7
:1012130008B8F5D8011208B8B3D9011208B881DAB1
:10122300011208B806DB011208B8B1DB011208B8D5
:101233009ADC011208B833DD011208B80FDE01127F
:1012430008B877DE011208B836DF011208B892DF5A
:10125300011208B8F6DF011208B8BCE0011208B8A1
:10126300DFE0011208B889E1011208B8ABE101120D
:1012730008B80CE2011208B83CE4011208B825E5ED
:10128300011208B8D1E5011208B8FEE7011208B847
:1012930047E8011208B892E8011208B8E5E801121C
:1012A30008B843E9011208B875E9011208B899E9C9
:1012B300011208B8CEE9011208B8F6E9011208B81C
:1012C3003BEA011208B899EA011208B8F7EA0112D9
:1012D30008B8EAEB011208B85EED011208B8A3EDF5
:1012E300011208B8CCED011208B851EE011208B88A
:1012F300B6EE011208B8C4EE011208B8E8EE011206
:1013030008B83EEF011208B859EF011208B814F0FB
:10131300011208B840F0011208B883F0011208B8AE
:10132300E6F0011208B8E2F2011208B80EF3011256
:1013330008B8C9F3011208B8ADF4011208B841F5B1
:10134300011208B8A5C6051208B8DDC6051208B80B
:10135300FEC6051208B840C7051208B8A4C705128F
:1013630008B8AEC7051208B8BEC7051208B8F5C756
:10137300051208B89ECB051208B866CD051208B849
:101383004ACF051208B8ECCF051208B876D005127B
:1013930008B85080031208B8F980031208B8D8813E
:1013A300031208B8E482031208B80483031208B8CE
:1013B3002684031208B8D685031208B8438603129D
:1013C30008B81487031208B81A88031208B8928859
:1013D300031208B8CD88031208B82689031208B887
:1013E3006189031208B8AA89031208B83E8A031256
:1013F30008B8D48A031208B8A98B031208B87C8CE6
:10140300031208B80A8D031208B8308D031208B806
:101413005D8D031208B88E8D031208B85B8E03121C
:1014230008B86B8E031208B8BE8E031208B8CB8EB1
:10143300031208B8D88E031208B8E18E031208B855
:10144300458F031208B8A38F031208B8EE8F031257
:1014530008B80990031208B83090031208B84D90E9
:10146300031208B85990031208B8EA91031208B896
:101473000392031208B87F92031208B892920312E0
:1014830008B8A292031208B84693031208B8B2949C
:10149300031208B8C595031208B86596031208B875
:1014A3006F96031208B8EE96031208B8FF9603125C
:1014B30008B83E97031208B86C97031208B8399816
:1014C300031208B89098031208B8C998031208B811
:1014D3001F99031208B83D99031208B88B99031298
:1014E30008B8569A031208B8A49A031208B8F19AD6
:1014F300031208B8749B031208B89E9B031208B822
:10150300D49B031208B8E39B031208B8429C03124E
:1015130008B8BA9C031208B8FB9C031208B84B9D89
:10152300031208B8769D031208B8909D031208B8F9
:10153300AA9D031208B87F9E031208B8899E03125E
:1015430008B8C49E031208B8D49E031208B8DD9EDF
:10155300031208B82E9F031208B8429F031208B85B
:1015630064A0031208B879A0031208B80CA10312EF
:1015730008B880A1031208B825A2031208B830A244
:10158300031208B893A3031208B8AFA3031208B851
:10159300FBA3031208B869A4031208B89BA403129F
:1015A30008B8B5A4031208B815A5031208B8B4A562
:1015B300031208B8FFA5031208B852A8031208B80B
:1015C300EAA8031208B861A9031208B8BEAB031254
:1015D30008B8D6AB031208B8D9AB031208B8E5AB09
:1015E300031208B8F9AB031208B801AC031208B828
:1015F30038AC031208B82CAD031208B8B6AD031209
:1016030008B838AE031208B8B8AE031208B88FAFE3
:10161300031208B8B1AF031208B84AB0031208B8EE
:10162300A7B0031208B8AAB0031208B819B103127D
:1016330008B865B2031208B878B3031208B803B444
:10164300031208B816B5031208B8DDB5031208B8BB
:101653000EB6031208B834B6031208B83DB6031227
:1016630008B86CB6031208B81CB7031208B8CCB795
:10167300031208B83FB8031208B8E2B8031208B857
:1016830055B9031208B894B9031208B8DDB90312A7
:1016930008B81691051208B8B491051208B8039258
:1016A300051208B87C92051208B81C93051208B8F5
:1016B300CF96051208B86999051208B8689D0512F6
:1016C30008B89C9D051208B8CA9D051208B84E9E1D
:1016D300051208B8969E051208B8BF9E051208B8F1
:1016E300EA9E051208B8379F051208B8AE9F051287
:1016F30008B8A5EB031208B82DEC031208B897EC51
:10170300031208B80BED031208B8D6EF031208B89A
:10171300F2EF031208B84BF0031208B831F10312C9
:1017230008B89BF1031208B84AF3031208B8A8F4E7
:10173300031208B816F5031208B88EF5031208B899
:1017430060F6031208B8CEF6031208B828F703129E
:1017530008B862F7031208B8F9F7031208B8C0F81B
:10176300031208B844F9031208B89EF9031208B823
:10177300E8F9031208B8ECFB031208B810FD0312D2
:1017830008B838FE031208B88FBA051208B895BB1B
:10179300051208B86DBE051208B805C1051208B8D0
:1017A30080C3051208B8D8C4051208B8FCC40512D2
:1017B30008B8E2C5051208B86FB8061208B892B89F
:1017C300061208B81CB9061208B8FAB9061208B806
:1017D3008CC2061208B8AEBB061208B8D6BB0612F6
:1017E30008B805BD061208B8F4AE061208B8E6B08C
:1017F300061208B80080051208B8D280051208B88E
:10180300FE80051208B83E81051208B856810512FC
:1018130008B8C681051208B8F281051208B85F82BC
:10182300051208B89B84051208B87586051208B816
:101833007087051208B8E987051208B851880512A0
:1018430008B8F788051208B87E89051208B8C48954
:10185300051208B8498A051208B8478B051208B85B
:10186300D48B051208B8C68D051208B8FE8E051272
:1018730008B8548F051208B8858F051208B8D08FA1
:10188300051208B82090051208B85190051208B83F
:101893008F90051208B8E790051208B89BAC0612A2
:1018A30008B8BEAC061208B8BAAD061208B85DAEE9
:1018B300061208B895AE061208B8D2A0061208B8E8
:1018C30050A1061208B860A1061208B88AA1061230
:1018D30008B87AE3041208B87DE3041208B8D045C7
:1018E300001208B8B7E4041208B828E5041208B8CF
:1018F300AFE5041208B836E6041208B8C8E60412C5
:1019030008B84FE7041208B82FE9041208B8B6E97B
:10191300041208B83DEA041208B8B5EA041208B87C
:101923008DEB041208B8D9EB041208B8E5ED0412E4
:1019330008B802EF041208B81FF0041208B851F1F6
:10194300041208B84FF2041208B8A7F2041208B838
:101953009A4D001208B8EEF3041208B820F40412EA
:1019630008B826F7041208B8C3F7041208B820F819
:10197300041208B87DF8041208B80BA0051208B8C1
:1019830019A0051208B85FA0051208B8B3A0051284
:1019930008B84AA1051208B8F1A1051208B817A2A0
:1019A300051208B83CA2051208B860A3051208B8CE
:1019B3008DA6051208B89BA6051208B8F7A605124E
:1019C30008B82AA7051208B83DA7051208B8C8A782
:1019D300051208B861A8051208B8AFA8051208B81F
:1019E3002CA9051208B898A9051208B8D1A905129F
:1019F30008B859AA051208B8DAAA051208B831AB13
:101A0300051208B88EAB051208B8A0AB051208B8CA
:101A1300B2AB051208B8D8AB051208B8E1AB051292
:101A230008B823AD051208B8AFAD051208B814AE57
:101A3300051208B835ED051208B86CEE051208B8A2
:101A4300F9EE051208B821EF051208B832EF0512B6
:101A530008B81BF3051208B83BF3051208B85FFF7B
:101A6300051208B89DA7061208B8E2A7061208B81F
:101A73002FA8061208B8CCA9061208B80DC704127D
:101A830008B8C3C8041208B812C9041208B8A4CB12
:101A9300041208B809CC041208B830CF041208B8ED
:101AA30092CF041208B8CED1041208B8BBD20412E4
:101AB30008B81ED3041208B8ADD3041208B853D41F
:101AC300041208B8A4D4041208B8F2D4041208B853
:101AD30041D5041208B80BD7041208B8EAD8041287
:101AE30008B8BDDB041208B8FFDB041208B85EDCDB
:101AF300041208B86DDC041208B8D5DC041208B867
:101B03008ADD041208B83BE2041208B80DE304129C
:101B130008B80BC7061208B826C7061208B8CE8540
:101B2300061208B8EE85061208B8DE86061208B853
:101B33002787061208B84787061208B88587061252
:101B430008B8E087061208B81E88061208B8688825
:101B5300061208B8348B061208B802B5061208B884
:101B63002BB5061208B84BB5061208B86BB50612AA
:101B730008B8C3B5061208B8E5B5061208B8ACB67E
:101B8300061208B8F8FF011208B80080041208B85A
:101B93006C80041208B83181041208B82683041239
:101BA30008B86C84041208B8F784041208B85F8577
:101BB300041208B8DB85041208B84786041208B873
:101BC3004A86041208B8C686041208B8E7860412C7
:101BD30008B8478A041208B89F8B041208B8058C0A
:101BE300041208B8658C041208B8D58F041208B81B
:101BF3003090041208B87A90041208B86091041265
:101C030008B89C91041208B8C191041208B816923E
:101C1300041208B85B92041208B86A93041208B855
:101C23006294041208B88394041208B8D39404127B
:101C330008B83D95041208B89995041208B841975D
:101C4300041208B88797041208B8D49A041208B883
:101C53001A9B041208B8659C041208B8A49C0412C9
:101C630008B8319D041208B8239E041208B8779E61
:101C7300041208B8049F041208B857A0041208B845
:101C8300A0A0041208B8AEA0041208B8B1A00412B0
:101C930008B8C6A0041208B8C9A0041208B858A10D
:101CA300041208B895A1041208B8B5A1041208B823
:101CB300EAA1041208B818A2041208B847A2041231
:101CC30008B8D9A2041208B859A3041208B85CA32F
:101CD300041208B866A3041208B8BAA3041208B819
:101CE300FAA3041208B83BA4041208B87EA4041291
:101CF30008B8A5A4041208B807A5041208B881A55A
:101D0300041208B8BFA7041208B8F6A9041208B849
:101D13001BAA041208B835AA041208B84FAA041261
:101D230008B835B1061208B846B1061208B822B28F
:101D3300061208B872E4051208B8CBE4051208B815
:101D4300FCE5051208B831E6051208B861E805128A
:101D530008B8AAE8051208B800E9051208B87DE931
:101D6300051208B88BEA051208B8F6EB051208B895
:101D730018EC051208B875EC051208B8FDEC05124D
:101D830008B812BA031208B835BA031208B849BA28
:101D9300031208B8F3BB031208B874BC031208B8E3
:101DA300FDBC031208B8D0BD031208B860BE03120D
:101DB30008B810BF031208B8C0BF031208B8BFC0E9
:101DC300031208B88EC1031208B8F7C1031208B88A
:101DD300F7C9031208B8CFCC031208B80BCD03120E
:101DE30008B892CD031208B895CD031208B88BCE6C
:101DF300031208B816D0031208B877D2031208B832
:101E030027D6031208B850D7031208B807DC031209
:101E130008B868DD031208B869DF031208B8FDE3E8
:101E2300031208B812E4031208B86FE6031208B8E5
:101E330079E7031208B801E9031208B866E9031247
:101E430008B8DFE9031208B8ACEA031208B8FED5F4
:101E5300021208B8D3D6021208B852D7021208B831
:101E6300A0D7021208B85FD8021208B801D902122B
:101E730008B8D2DB021208B834DC021208B80FDD4E
:101E8300021208B895DD021208B82BDE021208B858
:101E930041DF021208B8ACE3021208B8D3E502121C
:101EA30008B8BAE6021208B86DEA021208B86EEB77
:101EB300021208B84BEC021208B8E8EC021208B898
:101EC30079ED021208B842F0021208B8CCF10212FE
:101ED30008B8A1F2021208B820F4021208B8CEF42E
:101EE300021208B862F5021208B8C2F6021208B864
:101EF3009BAA041208B810AB041208B879AB0412F9
:101F030008B8C7AB041208B86BAC041208B807AD25
:101F1300041208B84EAD041208B814AE041208B87F
:101F23009EAE041208B869AF041208B8A3AF041236
:101F330008B8E5B0041208B839B2041208B869B297
:101F4300041208B8BDB3041208B8D2B3041208B817
:101F5300EEB3041208B80AB5041208B837B5041270
:101F630008B844B6041208B872B6041208B88EB69C
:101F7300041208B8AEB6041208B8F1B6041208B8D1
:101F830020B7041208B820B8041208B881B80412A4
:101F930008B829BA041208B8C9BA041208B8F1BAC1
:101FA300041208B80CBB041208B8EABC041208B83F
:101FB30078BD041208B8C7BD041208B810BE0412D5
:101FC30008B8A7BF041208B883C1041208B8DDC259
:101FD300041208B8EFC2041208B8FBC3041208B80D
:101FE300D2C4041208B85DC5041208B876C5041239
:101FF30008B8CFC6041208B802F6011208B850F6A2
:10200300011208B806F7011208B8EBF8011208B874
:1020130018FE011208B8A1FE011208B8458B06127A
:1020230008B8BD8B061208B8A98C061208B8868DAD
:10203300061208B8F48D061208B8898E061208B87D
:10204300738F061208B80690061208B8BAAA0612C9
:1020530008B8D7AA061208B898AC061208B874F8DC
:10206300021208B8F2F9021208B8A1FB021208B86A
:1020730016FC021208B88BFC021208B888FD021283
:1020830008B8E3FD021208B862C1061208B8A7C176
:10209300061208B85BC2061208B88EDB051208B830
:1020A30036DC051208B8A5DC051208B858DD0512A0
:1020B30008B8E6DD051208B8D2DF051208B803E157
:1020C300051208B827E1051208B88FE1051208B810
:1020D300F1E1051208B81DE2051208B849E205123C
:1020E30008B84DE3051208B892E3051208B843FF98
:1020F300031208B8CEFF031208B8B3C3061208B818
:10210300C4C3061208B88FC4061208B8FD7F0012B4
:1021130008B8DE7F001208B824FF021208B834FFA3
:10212300021208B854FF021208B8E8FF021208B8F6
:10213300B3FC051208B84EFD051208B844FF05129A
:1021430008B8BAB6061208B8E7B6061208B852B706
:10215300061208B876B7061208B8C6B7061208B84A
:1021630031B8061208B8C5BE061208B8DDBE06129D
:1021730008B8F8BE061208B818BF061208B866BF3A
:10218300061208B880BF061208B89ABF061208B82C
:10219300B0BF061208B8CFBF061208B8F0BF0612C8
:1021A30008B8C07A001208B8D97A001208B86B7B55
:1021B300001208B8697C001208B87E7F001208B8C4
:1021C30071C6061208B825D1051208B87AD10512CE
:1021D30008B880D4051208B852D5051208B84DD6F0
:1021E300051208B8EFD7051208B836DA051208B891
:1021F300C0DA051208B816DB051208B824DB05128D
:1022030008B838DB051208B850DB051208B868DBDC
:10221300051208B876DB051208B818F5051208B8D8
:1022230052F5051208B8E3F6051208B842F705128D
:1022330008B86EF7051208B887F7051208B8A5F7AE
:10224300051208B890F8051208B8E7F9051208B89E
:10225300AFFA051208B8D5FB051208B807FC05123A
:1022630008B832FC051208B85DFC051208B888FCF2
:10227300051208B813BA061208B83CBA061208B811
:1022830050BA061208B89ABA061208B8D9BA061292
:1022930008B818BB061208B87BBB061208B87EBB89
:1022A300061208B88CBB061208B89DBB061208B804
:1022B300599D061208B8959D061208B8F29D06129C
:1022C30008B8309E061208B87D9E061208B8BB9E59
:1022D300061208B8F69E061208B8209F061208B820
:1022E300469F061208B8AC9F061208B8DA9F06127A
:1022F30008B86DA0061208B885A0061208B89AA0FF
:10230300061208B89EC5061208B8BBC5061208B85F
:10231300E5C5061208B80080061208B8A1810612A6
:1023230008B8AF81061208B8CD81061208B8F48147
:10233300061208B85282061208B8AE82061208B80E
:102343004383061208B8C883061208B859840612D4
:1023530008B84C85061208B86085061208B873855C
:10236300061208B89585061208B83BFF041208B890
:102373006CFF041208B89DFF041208B8CAFF0412C8
:1023830008B84BA4061208B872A4061208B897A49A
:10239300061208B837A5061208B89999061208B8A4
:1023A300BC99061208B8CE99061208B8DC99061231
:1023B30008B8059A061208B81D9A061208B8359A85
:1023C300061208B84D9A061208B8059B061208B8FB
:1023D300829B061208B8B69B061208B80B9C06121D
:1023E30008B8609C061208B88E9C061208B89C9C1C
:1023F300061208B8D09C061208B8489D061208B801
:10240300A9C4061208B8DBC4061208B8DCFF03121D
:1024130008B84BAE051208B894AE051208B8C0AEA2
:10242300051208B8D9AE051208B8F9AE051208B8F6
:1024330063AF051208B89DAF051208B8F8B40512CA
:1024430008B8ABB6051208B8EDB6051208B85AB706
:10245300051208B82FB9051208B85FB9051208B8F4
:1024630079B9051208B88DB9051208B8DDB9051296
:1024730008B840BA051208B855BA051208B840BDE5
:10248300061208B857BD061208B880BD061208B870
:10249300A6BD061208B8D3BD061208B803BE0612BD
:1024A30008B824BE061208B85BBE061208B883BE7D
:1024B300061208B88FFF011208B83195061208B842
:1024C3004895061208B8AA96061208B8DF960612AF
:1024D30008B80797061208B83497061208B8529737
:1024E300061208B89397061208B81098061208B88F
:1024F3006598061208B8BC98061208B8F398061235
:1025030008B83199061208B88B99061208B843B374
:10251300061208B871B3061208B885B4061208B8D3
:102523009EB4061208B825C0061208B8ACC006123D
:1025330008B8FDC0061208B840C1061208B8B79023
:10254300061208B8D990061208B83691061208B8D0
:102553005791061208B88191061208B8A091061285
:1025630008B8BD91061208B8DC91061208B8DA92D1
:10257300061208B82693061208B84293061208B842
:102583006A94061208B87A94061208B88894061258
:1025930008B89694061208B8A994061208B807F961
:1025A300041208B892FE041208B8B2FE041208B866
:1025B300B7FE041208B82BC6061208B8DFC6061207
:1025C30008B8A9C6061208B836C7061208B8DAFF53
:1025D300011208B8A444001208B8C342001208B894
:1025E300BA42001208B8AD42001208B8B041001256
:1025F30008B83D41001208B82141001208B8034150
:10260300001208B8EB3F001208B8C63F001208B822
:10261300D63E001208B8623E001208B8D13D00123F
:1026230008B85F3D001208B84E3D001208B8293DB6
:10263300001208B8453C001208B8233B001208B842
:10264300D03A001208B8FD39001208B83739001221
:1026530008B8FB38001208B88E38001208B886385C
:10266300001208B8FB37001208B88B37001208B8FD
:10267300904D001208B8DC36001208B8774D0012EE
:1026830008B86D4D001208B8634D001208B8594DD3
:10269300001208B84F4D001208B83B4D001208B89D
:1026A300B549001208B8DB47001208B8D13600124A
:1026B30008B8C236001208B8A136001208B86D3641
:1026C300001208B89F47001208B84136001208B834
:1026D3001535001208B80133001208B8D2320012BF
:1026E30008B81B47001208B8B632001208B82EF318
:1026F300041208B84632001208B87931001208B83B
:10270300FD30001208B85530001208B8AE2F001281
:1027130008B8502F001208B8252F001208B8D62E7B
:10272300001208B8982E001208B8762E001208B8C6
:10273300532E001208B83A2E001208B8F22D0012D8
:1027430008B83C2D001208B8B02C001208B8ED2BC5
:10275300001208B8442C001208B8E045001208B86B
:1027630052E40400000080FBE473000136360101EB
:102773000001020100010301000104010606050234
:102783000000070100340801000F090401010D01D5
:1027930000FF0E08000017020000190100FF1A01D4
:1027A30000011B0100FE1C0100081D0200001F01A7
:1027B300000120010001210200002301000F240277
:1027C30000002601000127010008280200FF2A015A
:1027D30000072B0102402C0100002D0100012E01F6
:1027E30000012F0100FF30010B1D310800003A01E9
:1027F30000083B01000F3C0100013D0100FF3E04C6
:10280300000042040000460400004A0400004E0495
:10281300000052040000560400005A0400000103A3
:1028230071030103010301030103010322030203F3
:10283300010310030003000300030003000300036C
:1028430000034203000324030603000300030403FD
:1028530012032503230325032303040304030003B3
:102863000003000344030003000323030003650381
:102873002100350381030003050300030003000364
:1028830000032503230303047104020460041104F9
:10289300700402040204010402041004610400042D
:1028A30014046304730472046204430400041304F1
:1028B30006040004000404041204000400040004D9
:1028C30000045104640000040004000444040004F0
:1028D300000400040004650400043504810464005A
:1028E3000504000483040004030271023001600242
:1028F300110270020102020202028002100261024E
:102903003A00410063027302720262024302000250
:102913001302380000020002040212020002000245
:102923000002000204020402370037003C024402A2
:102933000002390000020002650200023502810232
:1029430000020502820283020002030071003001CB
:102953006000110070003102200350048000100059
:102963006100000014006300730072006200430002
:102973000000130006000000000004001200000025
:1029830000000000000004000400370037003C0290
:102993004400000000000000000065000000350056
:1029A30081000000050000008300000001017101A7
:1029B3000101010111010101310101010101800145
:1029C300100161013B001400630173017201620194
:1029D30043010001130106013D0135000401120109
:1029E300000100010001000104010401330133016E
:1029F3003C01440132013600000100016501000180
:102A030035008101000105018201830100013600C7
:102A13000100060000000F0000000000000000009D
:102A23000000000003FFFF00000403FFFF0000FF9E
:102A3300FF0FF4010005C4040320000100000B0094
:102A43000000000000000003010F00000000000070
:102A53000000000000000000000000000000000073
:102A63000000000000000000000000000A00000059
:102A73000200000004000000080000001000000035
:102A83002000000040000000800000000001000062
:102A93000002000000040000000800000010000015
:102AA30000200000004000000000901E1300F41DF1
:102AB3001F00FA1D1F80001E0100901E0200AC1DA6
:102AC3000300B21D0400B81D0500BE1D0600CA1D8B
:102AD3001100E81D1400EE1D1500DC1DFFFF0000B2
:102AE300012610065C100856100B741010200D0AF6
:102AF3008610022C10054A100732100C0E100D1A06
:102B030010643A26FF000007ECFDFDFDECDCDCCC95
:102B1300BCACAC9C9C8C7C7C6C6C5C5C5C4C4C3C22
:102B23003C2C2C1C1C00160F00000B150B02000282
:102B3300220F3300000E201504281147201505101D
:102B43001212080603015A6967426565416C6C6994
:102B5300616E63653039150AF4D4C0A5958272633A
:102B63006155504900034A49434E181A250502305E
:102B73003017181921301B1D1F3000393D3F373CDA
:102B83003C362C442D000119161816161823030081
:102B9300303016181920231A1C1E300C0E020B0499
:102BA3000B0A0708000F02040201010101090200D8
:102BB3000000000000E803000000BE040AFA067FDC
:102BC30000E8030E00592B00000A2B000001280C1B
:102BD3000C100C050303080900040008FF1E1E1552
:102BE3000500FF04040A10000803C082C0837900B3
:102BF300126F64C082C083900301126818D083D01F
:102C030082C3E09CA3E09D500DEA240B122C3C12DE
:102C13002C1C60027901024136EA75F00BA4FAA874
:102C2300F075F00BEBA428FB900303E02AF8A3E074
:102C33003B8882F583E0540F22F582E43B125A4D20
:102C43002274F71203AB890812515F122FA4ACF060
:102C530075F00BE9A42CF9900303E028F8A3E039FD
:102C6300F9E8FEE9FF7401650860067402650870FF
:102C7300228A828B8312315A740265087021EA24F6
:102C830003FA50010B122730E970148E828F83E40C
:102C9300F0800CEA2403FCE43B1231511227368EF8
:102CA300828F83E0D2E7F0121C92024D4A74F41231
:102CB30003AB12322B79008E828F83E06078890A0E
:102CC300890B8063E50A75F00BA4FAA8F075F00B85
:102CD300E50B122C287048E50A75F00BA4F8AAF04E
:102CE30075F00BE50B12316E8E828F83E0850882BF
:102CF3008509831247851230CFEE2403FCE43F128B
:102D03002DE7122736124F94E50AF0A3E50B123E86
:102D130053D2E7F0121C927901900301123BC705CD
:102D23000AE50A7002050B90030112614DC3E50A1F
:102D33009AE50B9B408E023E5D74F51203ABEAFEEF
:102D4300EBFF750A01740B120BE7126C75EC4D6007
:102D530015EC125E1A3D1232397901122754E50837
:102D6300450960758023E50845096044125E1835FE
:102D730009123239122DE8122730E96401701BEE73
:102D8300FAEFFB122748E9F50A85088285098312C1
:102D930030C77902AA08AB098011123152122730C9
:102DA300E9640170347903EEFAEFFB1227548029AA
:102DB3008E828F83A3E064FE7003A3E0F4700B1292
:102DC3003152122730E96401700CEEFAEFFB12273F
:102DD30048E9F50A8003750A00023784E50A2403EB
:102DE300FCE4350BFDE5082403FAE43509FB227402
:102DF300F71203AB9003011250C8EA4B602FEA7538
:102E0300F00BA4FAA8F075F00BEBA428FBEAFEEB99
:102E1300FF121A709003031250C8900303124EDD81
:102E23006012EEFCEFFD79001219988007900303FE
:102E3300E4F0A3F0024D4AC082C083EC4D6005125A
:102E4300253880097C087D007900121998024136E3
:102E5300C082C0837900EA4B60167800E8FCEA2C54
:102E630012516B60047901780808E8C3940840ECB8
:102E7300024136C082C0837901EC6A7002ED6B6057
:102E830011EA4B600BEC4D6007122532E9F9800221
:102E9300790002413674F71203AB74F3120981EC23
:102EA300FEEDFF851882851983E4F004120BE7EA2F
:102EB300F0A3EB12620D12270C7403120BE7AC8222
:102EC300AD83EEFAEFFB122736EEFAEFFB12273053
:102ED300024D4574F71203AB74F3120981ECFEED56
:102EE300FF851882851983E4F0EAFCEBFD74031275
:102EF3000BE7AA82AB83122736AA18AB191227064F
:102F03007401120BE71247968E828F8312508474DA
:102F1300FE68700374FF696004790180027900021E
:102F23004D4574F71203ABEAFEEBFF12274EE9F5AA
:102F330008740165087011122F8FF4FA888289834F
:102F4300E05A4480F0121C92A908024D4A74F71209
:102F530003ABEAFEEBFF7508008E828F83E0602AE5
:102F630012274EE9F50874016508701E122F8FFAB7
:102F730088828983E05A70128E828F83E04480FABC
:102F830088828983E04AF0121C9280BC124E0CF8AE
:102F9300122FA412329BF8A3E039F98E828F83E0BB
:102FA30022A3E0F9E875F00BA4F82274F41203AB42
:102FB3008A088B097C007D00EA122DEA122736E588
:102FC300081230E97900850882850983A3E064FE4D
:102FD3007003A3E0F460787E007F008065EEFAEF73
:102FE300FB122C1C6057EEFAEFFBEA75F00BA4FA08
:102FF300A8F075F00BEBA428FB900303E02AF50A75
:10300300A3E03BF50B85088285098312614C850A91
:1030130082850B83A3E06A7003A3E06B701FE50A4C
:103023002403FAE4350BFB122730E964017006121E
:103033002DDF1227361230DE790112697F0EEE7012
:10304300010F90030112614DC3EE9AEF9B408E0274
:103053003E5D74F31203AB8A088B098A828B831259
:1030630030C7EA1230E9750C00EA122DEA12273054
:10307300E9640170477E007F00803C12328DFAA321
:10308300E0398A82F583E0540F602712328DF50A06
:10309300A3E039F50B122DDF122532E9640170121A
:1030A300850A82850B831230CF1230DE750C011234
:1030B300697F0EEE70010F1232AA40BFA90C7F0583
:1030C300020657A3A374FEF0A304F022A3124D3605
:1030D300850882850983A312449E22E5081230F3F2
:1030E300EEF0A3EFF0221230F374FEF0A304F0220B
:1030F300240BF582E43509F5832274F51203ABEA58
:10310300FEEBFF8E828F831230C77C007D0012316D
:1031130052122736EEFAEFFB12274EE9F50A740135
:10312300650A7027124D2F123162850882F58312CA
:10313300315A122DE8122730E96401700EE5082494
:1031430003FCE43509123151122736023784FDEEB0
:103153002403FAE43FFB22A312615B12449E22E89C
:1031630075F00BA4F8AAF075F00BE91232A1F5087B
:10317300A3E039F5092274F21203AB74E612098154
:1031830012322B750A01750800750900750C00755C
:103193000D00851882851983E4F0EE2403FCE43FD7
:1031A300FD7403120BE7AA82AB83122736AA18AB6E
:1031B30019122706E96401701F740B120BE7123210
:1031C3003B7401120BE71261557003A3E069604A77
:1031D300A818A91988088909740D120BE7124784E6
:1031E300A3124796740E120BE7125084740D120942
:1031F3005912270CE964017009740D120951880CE6
:10320300890D780C1208D5AC08AD09EEFAEFFB1264
:10321300274274021208E8E9F50AEEFAEFFB1227D7
:1032230012A90A741A024FA6EAFEEBFF124F987412
:10323300FEF0A304F022F58312613BF9124F9812BA
:10324300449E22C082C08378007900800508E8701C
:103253000109900301123C25E99B5029E8FAE9FB97
:10326300EA75F00BA4FAACF075F00BEBA42CFB9011
:103273000303E02AFCA3E03B8C82F583E0540F7048
:10328300CC790080027901024136EEF8EFF9E87556
:10329300F00BA4F812329B22AAF075F00BE9A42AD2
:1032A300F9900303E02822900301124D36C3EE98F0
:1032B300EF9922C082C083902BE2E49375F01CA4A3
:1032C300FCADF079FF7A697B1712199802413674C5
:1032D300F71203ABE9FCEAFD7A007B008010EB12E6
:1032E30039329C4008E0F8EDC39840010A0B902B5B
:1032F300E2E493F8EBC39840E57B00024D4A74EC9B
:103303001203AB74F31209818A0C8B0D8C088D099F
:10331300890AEC45096016AA08AB091226AC8A0E85
:103323008B0FAE0EAF0FEE4F60030233FF7A0080B8
:10333300010A902BE2126092500F1234FD70F27466
:103343006928FE741739FF80047E007F00EE4F70FA
:10335300030234AA902BCA1234CE60257403650A83
:1033630060067404650A70197A0479031226DC8AEC
:103373000E8B0F902BE2E493F8902BCA1234E75094
:103383002D902BCE1234CE602C7401650A60067426
:1033930002650A70207A0279011226DC8A0E8B0FED
:1033A300902BE2E493F8902BCE1234E740077A0097
:1033B3007B000234C28518828519837401F0120BD5
:1033C300E7E50CF0A3E50DF0AC08AD097403120BAF
:1033D300E7AA82AB83122736AA18AB191226FA740E
:1033E3000B120BE71244978E828F83A3A3A3A3A38D
:1033F300A3E4126814AA0CAB0D1212A87800E50A14
:103403006007C39405500278048E828F83E50CF025
:10341300A3E50D1237F5A3A3E50AF0E88E828F83A7
:10342300A3A3A3A3A31264265001097A027B00126B
:10343300025B123C00A3123FB5123C2CE50A605D0F
:10344300C394035058901E36E07018902A6F780C7E
:10345300120A87123BD7120B5A902A6F780C120A62
:10346300878027F50875090074027808120A741218
:1034730034D8120A8790810E7810120B78780C7961
:10348300101202BC123BD7120B5AEE2413123BDA72
:10349300120B5A1234C73FF58374018009123BE3C0
:1034A3001230CAA3F0A3F07A0479001226DC123793
:1034B300E64005901DA8E4F0121170EEFAEFFB74DC
:1034C3000D0242A5EE241BF582E422E493F8740175
:1034D30093F9E84922746F2508F582742A3509F5B2
:1034E30083780C22E493FA740193FBE8C39AF8E41B
:1034F3009BF9C3E50E98E50F9922EA123503F422EE
:1035030075F01CA4F8A9F0746D28F5827417127570
:10351300E02274EE1203AB74F3120981EAFEEBFFAF
:103523008C108D11750800AA10AB111226ACEA4B52
:10353300700302362E8A828B83E06E7003A3E06FE2
:10354300700302362E8A828B83A3A3A3A3E0C394C2
:1035530005400302362E8A828B8312696DE0607008
:103563008A828B83A3A3A3A3E0C394035062901E18
:1035730036E07021902A6F7808120A8712363512C6
:103583000B5A902A6F7808120A87EA2413123638E6
:10359300120B5A8030F50875090074027808120A74
:1035A300741234D8120A8790810E7808120B787837
:1035B3000C79081202BC123D1D120B5AEA24131295
:1035C3003D20120B5AEA1234C83BF583E4F0801B0A
:1035D3007508FE7509FF750AFF750BFF1236351264
:1035E3000B5AEA2413123638120B5A750800750960
:1035F30000750A00750B00EA240C123638120B5AB8
:103603008518828519837401F0120BE7EEF0A3EF9E
:10361300F0AC10AD117403120BE7AA82AB8312272F
:1036230036AA18AB191226FA750801A908740D02F7
:103633006965EA2417F582E43BF58378082274F67A
:103643001203AB1226B28A088B09A808A909E84914
:10365300601488828983A3A3A3A3E06009C39405AC
:103663005004790180027900802F74F61203AB12A3
:1036730026B28A088B09A808A909E8496014888238
:103683008983A3A3A3A3E06009C39403500479012E
:103693008002790080031208E87F0202065774F65D
:1036A3001203AB1226B28A828B83E5824583600BB9
:1036B300A3A3A3A3E0700479018002790080DAC098
:1036C30082C083EAFCEBFD7A007B00024133C082B7
:1036D300C0837C007D0002413374F51203AB74F3A5
:1036E300120981EAFEEBFF8C088D09C3EC94F8ED17
:1036F30094FF4004EE4F6065750A00801974FF65FE
:1037030008700474FF6509600B126F5E7004A3E018
:103713006509603B050A902BE2E493F8E50AC39838
:10372300503BE50A1234FE60EBEE4F60D012376B6C
:10373300120BE7126209122700E960D87403120B17
:10374300E7AC82AD83EEFAEFFB122532E960C5E503
:103753000A75F01CA4F8A9F012392980047A007BB9
:1037630000740D1208E8801B851882851983740183
:10377300F0746B28F582741739F583124D36740B88
:1037830022A90A7F0302065774F41203AB74F312DF
:1037930009817508001226AC8A0A8B0BAE0AAF0B9F
:1037A300EE4F60258518828519831237F312377E11
:1037B300120BE71262091227187C1C7D0079FFEEB9
:1037C300FAEFFB1219987508017A0479001226DCC6
:1037D3001237E65009901DA87401F0121170A90860
:1037E300023E58902BE2E493F8C3EA98EB9400224C
:1037F3007401124789A3A32274F71203ABE9FE7481
:10380300FE6A700374FF6B7C00700380240C123813
:103813005E501EEC1234FE60F41239F87003A3E01C
:103823006B70EA800BEC1238736019E06403601468
:103833000C12385E501EEE60ECEC12386860F1C377
:10384300940550ECEC75F01CA4FCADF01274D0128E
:10385300614D80047AFE7BFF024D4A902BE2E49394
:10386300F8ECC3982275F01CA4F8A9F012350A22CB
:1038730075F01CA4F8A9F012350A6401221226641B
:10388300024136C082C083790180F274F01203AB27
:103893008A0A8B0B7A0479011226DC8A0C8B0DEAD7
:1038A300450D6040EA2AFAEB33FB121A708A088B43
:1038B30009AE08AF09EE4F60267AFE7BFF12265E43
:1038C30074FE6A700374FF6B601E8508828509832A
:1038D3001250C8E5082402F50850E2050980DE7598
:1038E3000C0080047E007F00850A82850B83E50C33
:1038F300F0EEFAEFFB023BBDC082C0837C0080097F
:10390300EA24FF1AEB34FFFB0C12385E5011EC1261
:103913003932940550F2EA4B70E612392980047A61
:10392300007B00024136746928FA741739FB2212AE
:103933003503C32274F71203AB74F31209817E00BB
:10394300807DEF75F017A4F8A9F01239E912614DE3
:10395300EE75F01CA4F8A9F01239F87003A3E06B1C
:10396300603DEF75F017A4F8AAF0EAF91239E912ED
:1039730047967401120BE7E0687003A3E069601FC8
:10398300EF75F017A4F8EAF974B728FC741939FD38
:103993007403120BE7AA82AB83122532E96013EF9B
:1039A30075F017A4F8A9F074B528FA741939FB1245
:1039B30012B40F902BD4E493F8EFC39840840E1203
:1039C30074BD501FEE127A3FF47003A3E0F460EE6F
:1039D30012376B120BE7126209122700E960DF7FCF
:1039E3000080D0024D451239ED2274B528F582745A
:1039F3001939F58322127A4A6A2274F41203AB74DA
:103A0300F31209817E0080389080EA7808120B78DF
:103A1300EE75F01CA4F8A9F0747C28F582741739AC
:103A2300F58378081209C260169081467808120B54
:103A330078EE75F01CA4F8123AC57808120A9A0EAB
:103A43001274BD507AEE12386860F4C3940350EFD9
:103A5300123AC5120BA0E8494A4B70AC901454E0DB
:103A63006401702D90040A124EDD6025EE75F01C82
:103A7300A4F8A9F0746928F8741739F9123B1912DC
:103A8300071288828983123BAE12276B74041208D3
:103A9300E88518828519837401F0EE75F01CA4F88B
:103AA300A9F0123774120BE7126209122700E960BA
:103AB3008E7403120BE7AA82AB8312266A808002FC
:103AC3003E58748028F582741739F5832274F612F0
:103AD30003AB1226B28A088B09A808A909E8496032
:103AE3003088828983A3A3A3A3E06021C3940350F6
:103AF3001C123B19120BB8E82417F582E439F5833D
:103B0300120BACE81234C839F5837401F0790180E3
:103B130002790002369CE82413F582E439F5832206
:103B230074F01203ABEAFEEBFF900404124EDD6067
:103B33007290040A124EDD606A90040E124EDD602C
:103B43006212734912276BE97059901E36E0700AAE
:103B5300902A6F7808120A878028F508750900747F
:103B6300027808120A7412752B742A12732A7808C1
:103B7300120A8790810E780C120B787808790C1250
:103B830002BC78081208CD123BA812276B740412EA
:103B930008E8E96401700C8E828F83A3A312733744
:103BA30012276B80158E828F83A3A3125A4F900422
:103BB3000A12734122740D1208E87F080206571295
:103BC300681CEC22E0F50AA3E0F50B22E493F8E588
:103BD30008C39822EE2417F582E43FF583780C227C
:103BE300123BF674FEF0A304F0A3F0A3F012499382
:103BF30074FE22EE2417F582E43FF58322E88E82D9
:103C03008F83A3A3A3A3A3A3A3A3124D1974011288
:103C13004D19A374AAF0EE2410F582E43FF583E472
:103C2300F022125A4FC3E89A22A3F0124F98E4F0FD
:103C3300EE240CF582E43FF583E4F0A3F0A3F0A3B4
:103C4300F02274F01203AB74F3120981EAFEEBFF66
:103C53007A0279011226DCEA8E828F83F0700302E6
:103C63003D1075F00CA4FAABF0121A708A088B0998
:103C7300EA45097003023D16AE08AF09750A0080D4
:103C83001C908146120712EEFAEFFB121A227404FB
:103C93001208E88A0C8B0DAE0CAF0D050A902BE2CF
:103CA300E493F8E50AC398506AE50A12387360058D
:103CB300E0640270E612376B120BE71262091227F7
:103CC30000E960187403120BE7AC82AD83EEFAEFE0
:103CD300FB1225388A0C8B0DAE0CAF0DE50A75F07F
:103CE3001CA4F8A9F0748428F582741712790A6465
:103CF30001708E123929EA2413123D20120B781217
:103D03003D1D120969780C1208CD023C8A75080022
:103D1300750900AA08AB09023BB8EA2417F582E447
:103D23003BF583780C22C082C08390030C7444F06B
:103D3300A37410F090030E743EF0A37410F090037C
:103D4300127494F0A37426F0024136C082C08390AB
:103D530003107438F0A37410F002413674F71203A1
:103D6300ABEAFEEBFF90037EE06408601FE06404AF
:103D7300601A8E828F83E0540364017044124E08EC
:103D8300F8A3E0F5838882E0640670358E828F8322
:103D9300A3A3E064FE7003A3E0F460258E828F8307
:103DA300A3A31268257003A3E0697008EE2415121B
:103DB300680C6005121104800312110AE9F50880EA
:103DC300037508C2EEFAEFFB121A76022F4B74F456
:103DD3001203AB8A088B098A828B83E0FAA3E0F88B
:103DE300EA28FAE43400FB121A708A0A8B0BAE0A33
:103DF300AF0BEE4F6054850882850983E0FC7D009C
:103E030079001219988E828F831230C61211408E58
:103E1300828F83A3A3A3A3EAF0A3EB123E53F8EE8E
:103E230028F8E43F12323E850882850983A3E0C067
:103E3300E012641CD0E0F0121152126412E912472E
:103E430011E0C0E0124469D0E0F0EEFAEFFB800A23
:103E5300124709E022740D1208E87F040206577422
:103E6300F41203AB74E81209818A088B098C0A8D5A
:103E73000BE9FE90037EE064046005E064087004CF
:103E830079C2804BA37808120B5AEE900385123F38
:103E9300BA1219988518828519837808120B5A74F7
:103EA30005120BE7EEF07404120BE77401F07407CC
:103EB300120BE7E4F090037E7402F0901465E06463
:103EC300027005901454E4F0AA18AB191225687413
:103ED30018808474F41203AB74E8120981EAFEEBD0
:103EE300FF900305124EDD6003023FB07A077B00AB
:103EF300121A709003051250C8900305124EDD701C
:103F030003023FAC8E828F83120BA0900305E0FC6B
:103F1300A3E0F5838C82120B94EE2404F50AE43FAC
:103F2300F50B850A82F583E0C0E0900305125A245D
:103F3300A3A3A3D0E0F0EE2405F508E43FF509853B
:103F43000882F583E0C0E0900305125A35D0E012F1
:103F53003FB5E0C0E090030512613BC82406F5823B
:103F6300E438F583D0E0123FBA1219988E828F831A
:103F7300120BA0851882851983120B94850A8285FA
:103F83000B83E0C0E07405120BE7D0E0123E53C090
:103F9300E07404120BE7D0E0F07407120BE7E412AD
:103FA300620D122568E9F980067910800279010211
:103FB3003ED2126DEFA322F07C187D007900AA187F
:103FC300AB1922C082C083900305124EDD601090AE
:103FD300030512614D121A76900305E4F0A3F01263
:103FE300106E12125A02413674F41203AB74E812C3
:103FF30009818A0A8B0BECFEEDFF89087428120BEA
:10400300E7E0FD7429120BE7E0FC740F6D70057493
:104013000F6C6012901E33E064026005EDC39C5088
:104023000579C10241007424120BE7120BA090031F
:104033007F120B94E508900385F0ED900383F0EC79
:10404300A3F0742A120BE7E0900386F074FF650A6D
:10405300700474FF650B7024901E47E0F47003A393
:10406300E0F4700C1219B090037CEAF0A3EB801516
:10407300901E471271BEE8F0A3E9800990037CE526
:104083000AF0A3E50BF0EE4F6017EEFAEFFB121305
:104093000EE96401700BEEFCEFFD7A907B031225B1
:1040A3003890036FE4F0A3F0900372F0A3F0900351
:1040B3008FF0901E33E064027008900383740FF056
:1040C300A3F090037E7405123FBA12199874041278
:1040D3000BE7E4F090037F120BA085188285198308
:1040E300120B94900385E0C0E07405120BE7D0E057
:1040F300F07407120BE7E412620D122568023ED238
:1041030074F71203ABE990030BF07A807B00900302
:10411300C9E0F9121B421225F27900024D4AC0820E
:10412300C08390030BE07003121DE21225F280039B
:10413300122676D083D0820208B574F01203AB90B6
:10414300030BE0901DA7700FE060057900121C5669
:10415300901DA7E4F0804AE06401600890030BE03F
:10416300F9121C56901DA77401F090030BE0F46044
:1041730030E0F50CE4F50DF50EF50FF09080F278D4
:1041830008120B78780C79081202BC780C1208CD4F
:104193007A807B009003C9E0F9121B36740412087D
:1041A300E87AA77B1D7941122550023BBD74EC12BE
:1041B30003AB74E71209818A0C8B0D8C0E8D0FE90A
:1041C300FF7E007508018E098E0A8E0B90037E74A4
:1041D30001F07C187D0079001209591219987401B5
:1041E300120BE7780C120B5A7406120BE7EFF074FC
:1041F30005120BE77403F07408120BE7E4F0850C67
:1042030010850D11850E12850F1378107908120A87
:10421300D3E51045114512451360010E740178086A
:10422300120871E5084509450A450B70D1AA18AB78
:1042330019795A12254A851882851983E0F508E40D
:10424300F509F50AF50B8E0CF50DF50EF50F78084B
:10425300790C1202BC908156780C120B787808798D
:104263000C1202BC9080F2780C120B787808790C4F
:1042730012033C12448A7A007B049003C9E0F912CA
:104283001B4278081208CD7A007B049003C9E0F939
:10429300121B3674041208E87401120959122568B6
:1042A30074191208E87F0C02065774F71203AB7CEB
:1042B300011225DA024D4A74F71203AB7C0080F138
:1042C30074F01203AB74FD120981EAFEEBFF890A55
:1042D3008C0B1268151210628A088B09EA45097063
:1042E3000579CA0244648A828B83A3A3A3A3A3A3ED
:1042F300A3E064FE7003A3E0F4700579C302446491
:104303001211408A0C8B0DA80CA90D850882850912
:1043130083A3A3A3A3A3A3A3E0687003A3E069708B
:104323000579C202446490037C124796850882850E
:104333000983E0687003A3E0696009850882850941
:10434300831245C990037C12614D1212BA8508820B
:10435300850983A3A3A3A3A3A3A3A3A3A3E0049077
:10436300038F1245B51225387401120BE77402123C
:10437300620D1211A68A0C8B0DAE0CAF0DEE4F70B1
:104383000302445B1254067406F0A3A882A9839027
:1043930003691265461253DE12113A1250BFEE241E
:1043A300131253E11264087440F0A3E4124473122D
:1043B3004497124469E50BF0EEFAEFFB122622E96B
:1043C300FE600302445D90037E7409124473124538
:1043D300BF900371E0650A6003E50AF07A727B031C
:1043E300794B1225507A7C7B0379501225507A71D0
:1043F3007B0379E11225507A6F7B037953122550A1
:1044030012448A901E1912614D12116A12447CE4FF
:10441300F50EF50F780C1208CD7A017B009003C9D5
:10442300E0F9121B3C74041208E87A007B04900341
:10443300C9E0F9121B4212447C7402780C12087111
:10444300780C1208CD7A007B049003C9E0F9121BA3
:104453003674041208E880027E109012D6E4F0EE5F
:10446300F97403023BBAEE2411F582E43FF583228B
:10447300124715A3A3A3A3A322901E19E0F508A333
:10448300E085080CF50D22901E17124D3690030798
:1044930012449E2212644512449E22E8F0A3E9F0DE
:1044A3002274F61203AB74E512098185188285190B
:1044B30083ECF0A3EDF0EAFEEBFF890990037EE0C5
:1044C30064046005E06408700579C20245B074268F
:1044D300120BE7E064FE7003A3E0F4700579C302F6
:1044E30045B07C197D00790074021209591219989C
:1044F30090037E740312620D7950122550742612B4
:104503000959794B1225508518828519831245C99B
:10451300E509900371F07426120BE71245BF742569
:10452300120BE7E0F5089003691245B512253874BC
:10453300CE55084480C0E0741A120BE7D0E0F09027
:104543001465E060046401700B7428120BE7E00447
:1045530090038FF07417120BE77402F07426120B9A
:10456300E7124796740F120BE7E8F0A3E912478F9F
:104573007418120BE7125084740D120BE7E509F05F
:10458300740A120BE7E4F0900384740FF07A847BCF
:10459300037954122550900383740FF07A837B03BD
:1045A30079471225507402120959122556741B02B9
:1045B3003699F0EEFCEFFD7A907B0322124D369094
:1045C300037212449E221271C212449E2274F71285
:1045D30003ABEB900386F0121050024D4A74F612AF
:1045E30003AB74E91209818A088B097E008A828BE6
:1045F30083A3A3A3E0C0E07406120BE7D0E0F08A24
:10460300828B83A3A3E0C0E07408120BE7D0E0F031
:104613007409120BE77401F08A828B83124EDD60FA
:104623000D8A828B8312614D122730E9703574072E
:10463300120BE7E4F012113A7404120BE71250C89C
:1046430090037EE06404700E1211467402120BE7AD
:10465300EAF0A3EB805B7402120BE774FDF0A37422
:10466300FF804E901465E060076401600302470217
:10467300AC18AD1985088285098312614D12271E76
:10468300850882850983A3A3A3A3E070317407126D
:104693000BE7740112478F7402120BE712508485E3
:1046A30008828509831247967404120BE7E8F0A386
:1046B300E9F0740212095912118EE9FE8041124782
:1046C30090740A120BE71250847414120BE77401EE
:1046D300124711A3E0C0E07415120BE7D0E0F074A9
:1046E30016120BE7E4124709126818740C120BE751
:1046F300AA82AB83122538740A120959121C6EEE72
:10470300F97417023699F0850882850983221247C6
:104713001522124709A3A32274F71203AB74F812EC
:104723000981EAFEEBFF790090037EE064086005EF
:10473300E06404704785188285198374FDF0A374BF
:10474300FFF012113A7402120BE71250C8740512EB
:104753000BE7124784A3E0C0E07404120BE7D0E038
:10476300124785E0C0E07406120BE7D0E0F074074F
:10477300120BE7E412620D12118EE9F97408024D6F
:1047830047E412478922F08E828F8322F0851882B4
:10479300851983124D36227F0702065774F41203DC
:1047A300AB74F91209818A088B098C0A8D0B851861
:1047B300828519837808120B5A7404120BE7E9F007
:1047C3007405120BE7E4F07406120BE7E412620DB2
:1047D3001226107407023E5A74F51203AB8A088B33
:1047E300098A828B83126982EE4F700302498C908F
:1047F300032C124EDD60178A828B83A3A3E0F9EEAC
:10480300FAEFFB90032DE0F583888212276B8E82EB
:104813008F83A3A3A3A3A3A3A3A3A3E0640260031F
:104823000248F68E828F83A3A3A3A3A3A3E054021B
:10483300700302491A850882850983A3A3E064E90A
:10484300700302491A850882850983A3A3E064CD16
:10485300700302491A850882850983A3A3E064F0E3
:10486300700302491AEE240D124CFE6028EE241345
:1048730012680C60208E828F83A3A3A3A3A3A3A398
:10488300A3A3A31249AB1211BEE9701D7A307B01B9
:104893001220048014901E38E0048E828F83A3A319
:1048A300A3A3A3A3A3A3A3A3F0850882850983A33A
:1048B300A3E0701F750A0080097A367B0112200479
:1048C300050A850882850983A3A3A3E0F8E50AC343
:1048D3009840E6EE240A126099C0E012498FD0E0B6
:1048E300124D157404F0901E3912643FE812499D6D
:1048F3001219F88E828F83A3A3A3A3A3A3A3A3A3B5
:10490300E0640260128E828F83A3A3A3A3A3A3A355
:10491300A3A3E0640670728E828F83A3A3A3A3A3D1
:10492300A3E0A2E05063850882850983A3A3E0F98D
:10493300EEFAEFFB120F3C8E828F83A3A3A3A3A3F4
:10494300A3E054FE1249AB1211BEE9850882850922
:1049530083A3A3702AE070237A2F7B011220047EA5
:1049630000850882850983A3A3A3E0F8EEC39850CA
:10497300187A367B011220040E80E67A318005E036
:1049830070077A2D7B011220040237861249932285
:10499300EE2413F582E43FF58322F0A3E9F07A20B5
:1049A3007B009003C9E0F922124789127341125A1E
:1049B3004F2274EC1203AB74BE120981EAFEEBFFC3
:1049C3008C108D11750C00750E00AC18AD19120EFC
:1049D30034740D120BE7E070087410120BE7E060FB
:1049E30014851882851983E0A2E6500E12614012E5
:1049F30011BEE960057A35024B1685188285198345
:104A0300E0540C64047005750D018003750D00E01E
:104A1300A2E5503D750E01E50DA2E04034121140B0
:104A2300124D217003A3E0697005124CFB706B12E9
:104A33001140124D217003A3E0696015124CFB7005
:104A430010126832AC18AD19120F0CE96003024B57
:104A530014124CFB702C851882851983E0A2E65052
:104A6300217401120BE7E05403701785188285192E
:104A730083E0540C640C600AE0540C640860037512
:104A83000C01851882851983E05403F87402687059
:104A93001912682E120E46024CF6126140124D2F67
:104AA3007415120BE7125084809A7401687047E5FD
:104AB3000CA2E0500B124CFB700612682E120E3A39
:104AC300741A120BE7E518F0A3E519124D2E7417AB
:104AD300120BE71250848E828F83A3A3A3A3A3A3F5
:104AE300E0C0E07419120BE7D0E0F0741712095913
:104AF300120D86024CF6E86003024CF6900366E062
:104B0300640170178E828F83A3A3A3A3A3A3E07072
:104B13000A7A347B01122004024CF67424120BE748
:104B23007402124D2E741C120BE7124D08E05480D0
:104B33007003024C2B742D120BE77402124D1512E5
:104B430047967425120BE71250847403120BE7E0A7
:104B5300C0E0742E120BE7D0E0F07402120BE7E012
:104B6300C0E0742F120BE7D0E0F090037C1247965D
:104B73007430120BE71250847406120BE712479637
:104B83007432120BE71250847408120BE712479623
:104B93007434120BE71250847410120BE7E0F874AC
:104BA30036120BE7E8F0A3E4F0740E120BE712479A
:104BB300967438120BE7124D08124796743A120B8B
:104BC300E71250847412120BE7E0C0E0743C120B3E
:104BD300E7D0E0126DFEC0E0743D120BE7D0E0F0C9
:104BE300126809C0E0743E120BE7D0E0F0741112B2
:104BF3000BE7E0C0E0743F120BE7D0E0F074131250
:104C03000BE7E0C0E07440120BE7D0E0F0EE2423A2
:104C130012680CC0E07441120BE7D0E0F074251267
:104C23000959120E4C024CF6E50CA2E0500612682C
:104C33002E120E3A7456120BE77808120B78E50D14
:104C4300A2E0EE5072240F12680CC0E07412120B33
:104C5300E7D0E0F090032E124EDD7003024CF61203
:104C630011408A128B13A812A913741C120BE7E0CC
:104C7300687003A3E069707B78081208CDE50EF530
:104C83000878081208D98E828F83A3A3A3A3E0F523
:104C93000878081208D978101208D5A90C740812DC
:104CA3000961742412095990032E12615112276B62
:104CB30074081208E8803C12680AF50C780C120894
:104CC300D978081208CDE50EF50878081208D978C6
:104CD300101208D590037C120716EE241212680CEA
:104CE300F97426120961740A120959120F48740AD9
:104CF3001208E874420242A5EE2421F582E43FF54E
:104D030083E054802212449EEE2421F582E43FF591
:104D13008322124D1922126DF3A3A3A3A3228A089F
:104D23008B09A808A909124E0C6822F0124F981299
:104D33004D362212613BF92274F71203AB121C3277
:104D43008005740D1208E87F0102065774F71203F9
:104D5300AB121C3E80F174F71203AB121C4A80E7BE
:104D6300C082C083121C4402413674F71203AB1293
:104D73001C5080D374F71203AB7409120BE7E0F5F0
:104D83000878081208D9121C62740180B7C082C067
:104D930083121C6E02413674F61203ABEAFEEBFF7C
:104DA300901465E0600464017051900369E0A2E12E
:104DB30050498E828F83A3A3A3A3A3A3A3A3A3A3D7
:104DC300E0640160361211468A088B09A808A90914
:104DD3008E828F83E0687003A3E069601E124E0821
:104DE300640160178E828F8312614D1226BEE960C3
:104DF3000A8E828F8312614D1210FEEEFAEFFB12C0
:104E03001C7402369C124E0C22124F9CE02274F743
:104E13001203AB121C7A024D4A74F71203ABE9FE7C
:104E2300900369E0A2E3401890033A120BA0E8490B
:104E33004A4B600C7A087B00900319E0F91219F8C9
:104E4300EEF9121C86024D4A74F71203ABEAFEEB2D
:104E5300FF89087401650870147900120CEA902B1D
:104E6300E0E493FC7900EEFAEFFB120C60024D4A8A
:104E730074F71203AB121C68024D4A74F41203ABAD
:104E830074F9120981E9FE8A088B098C0A8D0B904B
:104E93001330124EDD602BEE851882851983F07472
:104EA30001120BE77808120B5A7413120BE712471F
:104EB300967405120BE712620990133012615112B6
:104EC300276B0247D6E50E75F006A4F8AAF0EAF9B7
:104ED300744128F582741C39F583124D36E8492252
:104EE300C082C083121CCE02413674F71203AB1288
:104EF3001C8C024D4A74F71203AB901DAAE0F9789B
:104F030000800B125173540D640170011908125182
:104F1300155003E970ED024D4A74F71203AB901D6F
:104F2300ABE0F97800800B125173548D64817001EA
:104F330019081251155003E970ED024D4A74F2122B
:104F430003AB890BE975F006A4A9F0240CF508E47A
:104F530039F509E5082AFAE43509FB121A708A0CB7
:104F63008B0DAE0CAF0DEE4F6021AC08AD0979008F
:104F7300121998124F94E50BF0EE2508F8EF350956
:104F8300F98E828F83A3A3A312507EEEFAEFFB80E8
:104F930015124F9822124F9C22EE240BF582E43F08
:104FA300F583221208E87F0602065774F61203AB54
:104FB300EAFEEBFF120C3CE9F8901DA9E0F9E8C307
:104FC30099400990031412614D120C42EE2402F829
:104FD300E43FF98808890990031612654690031681
:104FE300E004F0EEFAEFFB120C4885088285098392
:104FF300E0026675C082C0837900900314800109C2
:1050030012614D8A828B83E582458370F2024136B9
:1050130074F71203ABEAFEEBFFEE4F605B900314F1
:10502300124EDD6053888289837A007B00EE6582AD
:105033007003EF65836013AA82AB8312479688825D
:105043008983E5824583603080E390031412479699
:10505300EE687002EF698E828F8370081247969014
:105063000314800312732F125084EEFAEFFB120D18
:10507300B6EEFAEFFB121A76024D4AA3A3A3A3A33B
:10508300A312449E22C082C08390031480048882AA
:105093008983124EDD600A88828983123BC24D7078
:1050A300ED8A828B83E4F0A3F0E849600688828965
:1050B3008380039003141250C8024136EE241AF57C
:1050C30082E43FF583EAF0A3EBF022125A4FEA4B56
:1050D3002274F71203AB90031480048A828B831229
:1050E30050CE6027780080010812511550EDE87505
:1050F300F006A4FCADF0EA2CFCEB3DFDEC2410F52E
:1051030082E43DF583E06970DF80047A007B00026E
:105113004D4A125164FCE8C39C2274F71203ABE9B5
:10512300FE7D0080010D12515FEDC3985027ED7590
:10513300F006A4F8AFF012518C24101279076E70A8
:10514300E4ED75F006A4F81251964CF0E8240CFA3D
:10515300E439FB80047A007B00024D4A125164F863
:1051630022EA240B12516B22F582E43BF583E02201
:10517300E875F006A4FCADF0EA2CFCEB3DFDEC2455
:1051830011F582E43DF583E022EFF9EA28F8EB39E3
:10519300F9E82212518C2411F582E41275E022748D
:1051A300F61203AB120D567A008016EA75F006A4C8
:1051B300F8A9F0126576E4126679F0A3126C5FF039
:1051C3000A902BD212609240E27A00801C8A087502
:1051D300090074037808120A7412523AA374FEF099
:1051E300A304126436A3E4F00A902BEB12609240FE
:1051F300DC7900801A890875090074037808120A9B
:105203007474DD12752D741C12732A1230C8099040
:105213002BDA126C5840DE902BD0E493900318F0F5
:105223009080F21207127A107B009003C9E0F91202
:105233001B3C7404023699749D2508F8741C3509C7
:10524300F9888289832274F01203AB74F512098101
:105253008A088B09890A8C0BE9A2E050147508FCB3
:105263007509FFA2E15005D2E402530AD2E30253C7
:105273000A120D3E8A0C8B0DA80CA90D90036FE04A
:10528300687003A3E069600EAC0A7902AA08AB094F
:10529300120D38E9700579000253D9E50AF50C7847
:1052A3000C1208D979027CFE7DFFAA08AB09120C07
:1052B300B474011208E8E960030253D7E50AC2E5B2
:1052C300F50AA2E640437403120961AA08AB091266
:1052D3002724E9702E125A2E1212968A0C8B0DAEC9
:1052E3000CAF0DEE4F6022EE2402FAE43FFB1227CF
:1052F30030E96015EE2402FCE43FFD740312095902
:10530300122538E50AD2E5F50A900317E0F50C906B
:10531300036F1255A5780E1208D57D017C0090030A
:1053230017E0F9AA0EAB0F120CF674021208E8E9A3
:10533300F8900317E004F0E860030253D7E50AA2EC
:10534300E55004740E80027406C0E07401120BE78A
:10535300D0E012620D1211A68A0E8B0FAE0EAF0FA4
:10536300EE4F606C1253DE12113A1250BF12540604
:105373007401F07478550AA3126518A3E50C12653D
:1053830018A3A3E508F0E5091253EBE4F0E50AA23C
:10539300E5500F7403120961E82406FAE439FB129D
:1053A30025388E828F83A3A374FDF0A374FFF0E5E9
:1053B3000B6012902BE1E493F8E50BC398500612AF
:1053C300498FE50BF0EEFAEFFB122622E9F980068E
:1053D3007910800279C7740B023BBAEE2417F58269
:1053E300E43FF5837401F02288828983A3A3A3A3F6
:1053F3001253F7221253FB22F088828983A3A3A3BB
:10540300A3A322EE126F6E3F12540F22F583126193
:105413003BF9888289832274F41203AB7A007B10F0
:105423009003C9E0F9121B48EA4B4C4D6008900306
:10543300DB7401F08043901452E06401901E3470D9
:1054430006E0FC79018004E0FC79037A007B00121A
:105453000C60902BC4E493F508740193F509E4F50B
:105463000AF50B78081208CD7A007B109003C9E087
:10547300F9121B3674041208E8023E5D74F012033D
:10548300ABEAFEEBFF8C0A8D0B890C1211BEE960AF
:10549300057AFF025575901E33E0640260030255DE
:1054A3009B902BD8E493F9EEFAEFFB120D68E960B9
:1054B300030255957900EEFAEFFB120D3EA90C128B
:1054C3000D328A088B09EA4509700302559B8A82CB
:1054D3008B83A3A3A3A3A3126B7B707E12614D8561
:1054E3000882850983A3A3A3A3A3A3E05418604F51
:1054F300902BDFE493850882850983A3A3A3A3F0FC
:105503007410120BE71268187412120BE71255A5E8
:10551300EA650A7003EB650B6012EA6C7002EB6DCF
:10552300600AEA650E7003EB650F7022780E1208AD
:10553300D5AA0AAB0B1212D274021208E8800F909C
:10554300036EE0850882850983A3A3A3A3F074FEF9
:105553006A700374FF6B601E8045A3A3A3E064031A
:1055630060248A828B83A3A3A3A3A3E064047006AD
:105573007AFE7BFF8029850882850983A3A3A3A3E1
:10558300A3E0640260127907EEFAEFFB120D68E9FB
:105593006006EEFAEFFB8007EEFAEFFB120C7202E5
:1055A3003BBDE0F50EA3E0F50F2274F71203ABEA5F
:1055B300FEEBFF1226CAE9700AEEFAEFFB1226B8D9
:1055C300E96006EEFAEFFB80047AFE7BFF024D4AA8
:1055D30074EE1203ABEAFEEBFF8C0C8D0D890E7596
:1055E30008001211BEE979006003025718EEFAEFC2
:1055F300FB120D3EA90E120D328A0A8B0BEA450BE4
:10560300607D8A828B83A3A3A3A3A3E064036023A7
:105613008A828B83A3A3A3A3A3E06401600302573D
:105623001679078A828B8312614B120D68E9600336
:10563300025716750902850A82850B83A3A3A3A3C8
:10564300A3A3E0541860030256CD7900AA0CAB0D56
:10565300120D3E8A0A8B0BA80AA90B90036FE06810
:105663007003A3E06960030256FA902BE0E493FC15
:10567300A90EEEFAEFFB120C60750801025716EE45
:10568300FAEFFB120C721226B28A0A8B0BA80AA934
:105693000BE849607E88828983A3A3A3A3A3E0A226
:1056A300E05070750901A2E150127901EEFCEFFDA3
:1056B300AA0CAB0D120C90E97090805788828983F5
:1056C300A3A3A3A3A3D2E1F08080750801850A8276
:1056D300850B83A3A3120716750AFE750BFF780AC1
:1056E3001208D57900EEFCEFFDAA0CAB0D120D4AA2
:1056F30074041208E8801CA909EEFCEFFDAA0CABA8
:105703000D120C90E9700C750801A90EEEFAEFFB6F
:10571300120CEAA90802696874E91203AB74F01267
:1057230009818A0C8B0D8C088D09750B06125A2E74
:105733001212C08A108B11EA4511600B8A828B8387
:10574300A3E070030258C2E50C241DF50EE4350DE9
:10575300F50F850E82125C2DF51688828983A3A32B
:10576300A3E0FA88828983A3A3A3A3E0F8E4C8F99A
:10577300EA28FEE439FFAA08AB09120CF0E9F9851F
:105783000E82850F83125A35E029F50EE50AA2E54C
:105793005003750B0E7487550A700F7418550A64FD
:1057A300186007125C12650B600A7AD37B00122023
:1057B300040258C2530A7878081208D57D00AC0E4B
:1057C300A916125A44120CF674021208E8E9F87486
:1057D300036870030258C27427120BE7E0F512A3A3
:1057E300E0F513E860030258B37418550A70030216
:1057F30058C7E50AD2E0F50AA2E45004D2E1F50A5B
:10580300A90A125A44120D328A148B15A814A91529
:10581300E849605788828983A3A3A3A3A3A3E05481
:1058230018604888828983A3A3A3A3A3E0640170BB
:105833003AE5104511603412681588828983126134
:105843004B1212C08A148B15A814A915E849601BC2
:1058530088828983A3E06013851082851183A3E086
:10586300FA88828983A3E0C39A4054E50AF50B784A
:105873000B1208D9125A3E120CB474011208E8E94B
:10588300702E7C007D0085128285138374FFF0A344
:10589300126526A3A3A3A3A3A3A3A3E0600AE50C15
:1058A3002415125A1A126818A90E125A44120C0C13
:1058B300851282851383E0F47003A3E0F4604879D2
:1058C30000025A0C900368E06014E50AF50B780BAC
:1058D3001208D9125A3E120CB474011208E8E50AF0
:1058E300F50B780B1208D979027CFE7DFFEEFAEFF7
:1058F300FB120CB474011208E8E970B485128285B6
:10590300138374FFF0A3F078081208D57D01AC0E61
:10591300A916125A44120CF674021208E8A90AEEE8
:10592300FAEFFB120D3E8A088B09A808A909900318
:105933006FE0687003A3E0696003025A00EEFAEFB8
:10594300FB1226B28A088B09A808A909E84960272F
:1059530088828983A3A3A3A3E06401600D8882895D
:1059630083A3A3A3A3E06402700DAC18AD19EEFAF0
:10597300EFFB122724801212113A8A088B09AC0814
:10598300AD09AA18AB19122538850C82850D83A39E
:10599300A3A3A3A3A3A3A3E064017012E50C24159E
:1059A300125A1A1268187408120959122538E50C8C
:1059B300241DF582E4350D125A22E04430F50878AF
:1059C300081208D974011209518808890978081244
:1059D30008D5740B1209518808890978081208D56B
:1059E300E516F50878081208D97900EEFCEFFD12E8
:1059F3005A44120C8A74061208E80258C2125A1644
:105A0300125A35E50EF012115274101208E87F0F86
:105A1300020657E50C241DF582E4350DF58322F5C6
:105A230083E0F8A3E0F5838882A32290037C125CD1
:105A33004922127341A3A3A3A3A3227901AC08AD06
:105A430009126F6C350D125A4D22F583E0FAA3E06B
:105A5300FB2274EC1203AB74F01209818A0C8B0DD8
:105A6300ECFAEDFB750F081268151212C08A088B49
:105A730009AC08AD09EC4D601F8C828D83A3E070E7
:105A83001712642B5001097A027B0012025BE88C27
:105A9300828D83F0A37407F0E50C241DF582E435B1
:105AA3000D125C2DF50E88828983125C1FE0FAE4E7
:105AB300CAFBEC2AFEE43BFF88828983A3A3125C22
:105AC3001FA3A3E0FBECF508E43BF5098882898377
:105AD300A3A3A3A3A3A3A3E0F50BE50AA2E45003A6
:105AE300750F10A2E550067408250FF50F748F5536
:105AF3000A7007125C12650F600A7AD37B001220CA
:105B030004025C0D530A707800E50AA2E4501C12EB
:105B13005A16E02408FCA3E03400FD740812095966
:105B23001225387808E50AC2E4F50AE50AA2E55029
